:020000040800F2
:10000000000002208D07000889070008B963000876
:100010008907000889070008890700080000000018
:100020000000000000000000000000008907000838
:100030008907000800000000890700083D630008E8
:100040008907000889070008890700088907000850
:100050008907000889070008890700088907000840
:10006000890700088907000889070008415F000820
:100070004D5F0008314C0008595F0008655F0008BB
:10008000B91601081D5400088907000889070008EF
:100090008907000889070008890700088907000800
:1000A00089070008890700088907000889070008F0
:1000B000D50A0108E10A0108ED0A01084D540008BB
:1000C0008907000859540008890700088D030108B2
:1000D00099030108C9140108F91401083115010830
:1000E0008907000889070008000000008907000848
:1000F00089070008890700088907000889070008A0
:100100008907000889070008F90A0108A503010802
:1001100069150108A1150108890700088907000869
:100120008907000889070008C9030108FD030108C1
:10013000ED160108890700088907000889070008EB
:1001400000000000000000000000000000000000AF
:10015000890700088907000889070008D9150108E0
:1001600065540008890700084D63000871630008A2
:1001700089070008956300088907000889070008B7
:1001800089070008890700081116010849160108A7
:10019000B1030108BD0301088907000889070008A9
:1001A00089070008890700088907000889070008EF
:1001B000B95B00088907000889070008890700085B
:1001C000890700088907000825470008314700080B
:1001D000890700083D4700088907000889070008CB
:1001E00089070008890700088907000889070008AF
:1001F000890700088907000889070008890700089F
:10020000890700088907000889070008890700088E
:10021000890700088907000889070008890700087E
:100220008907000889070008890700080000000006
:1002300089070008890700080000000089070008F6
:10024000890700088907000889070008890700084E
:10025000890700088907000889070008890700083E
:10026000890700088907000889070008890700082E
:1002700089070008890700088116010800000000AE
:1002800089070008890700088907000800000000A6
:080290000000000089070008CE
:1002A00001F0FF01102A2BDB10F0070F08D010F827
:1002B000013B013A8B422DD010F0070F42B3F6D12B
:1002C000F0B441EA012141EA014122F007047FF044
:1002D00000070023F0E80256083C85EA010586EA9B
:1002E000010685FA47F5A3FA87F586FA47F6A5FAD7
:1002F00087F68EB9EED1F0BC01F0FF0102F00702E3
:1003000032B110F8013B013A83EA010313B1F8D18D
:100310000020704701387047002D06BF354603386E
:10032000073815F0010F07D1013015F4807F02BFA7
:10033000013015F4C03F0130F0BC0138704700BFF8
:10034000034613F8012B002AFBD1181A0138704715
:1003500081F0004102E000BF83F0004330B54FEA76
:1003600041044FEA430594EA050F08BF90EA020FE3
:100370001FBF54EA000C55EA020C7FEA645C7FEA76
:10038000655C00F0E2804FEA5454D4EB5555B8BF99
:100390006D420CDD2C4480EA020281EA030382EA0A
:1003A000000083EA010180EA020281EA0303362D9C
:1003B00088BF30BD11F0004F4FEA01314FF4801C6F
:1003C0004CEA113102D0404261EB410113F0004F81
:1003D0004FEA03334CEA133302D0524263EB430338
:1003E00094EA050F00F0A780A4F10104D5F1200ED6
:1003F0000DDB02FA0EFC22FA05F2801841F1000131
:1004000003FA0EF2801843FA05F359410EE0A5F104
:1004100020050EF1200E012A03FA0EFC28BF4CF035
:10042000020C43FA05F3C01851EBE37101F00045EB
:1004300007D54FF0000EDCF1000C7EEB00006EEBF8
:100440000101B1F5801F1BD3B1F5001F0CD3490882
:100450005FEA30004FEA3C0C04F101044FEA4452D9
:1004600012F5800F80F09A80BCF1004F08BF5FEA60
:10047000500C50F1000041EB045141EA050130BD40
:100480005FEA4C0C404141EB0101013C28BFB1F552
:10049000801FE9D291F0000F04BF01460020B1FA9D
:1004A00081F308BF2033A3F10B03B3F120020CDA70
:1004B0000C3208DD02F1140CC2F10C0201FA0CF04E
:1004C00021FA02F10CE002F11402D8BFC2F1200CB3
:1004D00001FA02F120FA0CFCDCBF41EA0C01904069
:1004E000E41AA2BF01EB0451294330BD6FEA0404B2
:1004F0001F3C1CDA0C340EDC04F11404C4F120029D
:1005000020FA04F001FA02F340EA030021FA04F3AE
:1005100045EA030130BDC4F10C04C4F1200220FA05
:1005200002F001FA04F340EA0300294630BD21FA43
:1005300004F0294630BD94F0000F83F4801306BF09
:1005400081F480110134013D4EE77FEA645C18BFFD
:100550007FEA655C29D094EA050F08BF90EA020F94
:1005600005D054EA000C04BF1946104630BD91EA8C
:10057000030F1EBF0021002030BD5FEA545C05D18F
:100580004000494128BF41F0004130BD14F58004CE
:100590003CBF01F5801130BD01F0004545F0FE4142
:1005A00041F470014FF0000030BD7FEA645C1ABF77
:1005B000194610467FEA655C1CBF0B46024650EAAE
:1005C000013406BF52EA033591EA030F41F40021DA
:1005D00030BD00BF90F0000F04BF0021704730B560
:1005E0004FF4806404F132044FF000054FF0000135
:1005F00050E700BF90F0000F04BF0021704730B5F6
:100600004FF4806404F1320410F0004548BF4042CA
:100610004FF000013EE700BF42004FEAE2014FEA1F
:1006200031014FEA02701FBF12F07F4393F07F4FFA
:1006300081F06051704732F07F4208BF704793F0FD
:100640007F4F04BF41F40021704730B54FF4607410
:1006500001F0004521F000411CE700BF50EA010213
:1006600008BF704730B54FF000050AE050EA0102BC
:1006700008BF704730B511F0004502D5404261EB2C
:1006800041014FF4806404F132045FEA915C3FF46D
:10069000D8AE4FF003025FEADC0C18BF03325FEA0A
:1006A000DC0C18BF033202EBDC02C2F1200300FABB
:1006B00003FC20FA02F001FA03FE40EA0E0021FAE0
:1006C00002F11444BDE600BF53B94AB9002908BF7E
:1006D00000281CBF4FF0FF314FF0FF3000F00CB886
:1006E000ADF1080C6DE904CE14F05AFDDDF804E01C
:1006F000DDE9022304B07047704700BF0348044B94
:10070000834202D0034B03B1184770472C060024E4
:100710002C060024000000000548064B1B1AD90FC8
:1007200001EBA301491002D0034B03B118477047F6
:100730002C0600242C0600240000000010B5064CF6
:10074000237843B9FFF7DAFF044B13B10448AFF342
:1007500000800123237010BD30060024000000003B
:10076000D075010808B5054B1BB105490548AFF325
:100770000080BDE80840FFF7CFBF00BF00000000C9
:1007800034060024D0750108FEE700BF0B480C4A70
:10079000904203D0121A0B4913F0CCFD0A480B4AC1
:1007A000904203D0121A002113F02CFD06F026F817
:1007B00013F08AFD01F054FEFEE700BF00000024A4
:1007C0002C0600240476010830060024E465002489
:1007D000704700BF704700BF704700BF704700BF41
:1007E0009AB10368406803EB820210B40C68496850
:1007F00053F804CB44F804CB934250F804CB41F8AF
:1008000004CBF5D15DF8044B7047704749424FF473
:1008100080621030C9B213F0F5BC00BF704700BF52
:10082000402070478020704710B504464FF4826125
:1008300013F069F8204610BD2DE9F04F87B0A1F103
:10084000200506AC9DF8407004E90C00EBB29DF861
:1008500010409DF811A05E2B00F28380036889464A
:10086000674A8046DB68934240F0A2808020B8F857
:1008700004302344834274DCD8F80030614A9B681A
:10088000934240F097804020B8F8066006EB0A03D8
:10089000834266DCB8F80410BAF1000F69D00AFB95
:1008A00005F56FF00043059AB6462B44AA4402EBC7
:1008B0004303023A5D8802EB4A0B03F1020A002C63
:1008C00053D001F110035A46CDF80C90CDE90161E7
:1008D0000EF007014FF001094FEADE066FF00F0C32
:1008E00009FA01F9002003EBC611CDF800A06FEA68
:1008F000090B08EBC6165FFA89F941445FFA8BFBD6
:10090000ACEB060C09E026B90E78CFB149EA060631
:100910000E7001300131A0421AD00CEB010605FA2D
:1009200000FABEF13F0F98BF7F2E8CBF0126002634
:100930001AF4004FE7D1002EEBD10E78002FE5D04E
:1009400001300BEA06060131A04201F8016CE4D146
:10095000DDF800A00EF1010E924524D03AF8025FB6
:10096000B6E7002007B0BDE8F08FD3450AF1020AD0
:10097000FBD1D8F800300C442149DA68A4B28A428D
:100980002AD1802C28BF7F249B681E4AA8F80440E7
:10099000934212D13F2E00D93F264846A8F8066060
:1009A00007B0BDE8F08FDDE90161DDF80C90E0E70C
:1009B00098475CE74046984766E740469847864236
:1009C000EBD3D8F800300F4A9B689342E4D04046FE
:1009D0009847431E9EB2E0E7404690478442D8F8CD
:1009E0000030D1D3DA6806498A4206D040469047A3
:1009F000441ED8F80030A4B2C6E77F24C4E700BF85
:100A000025080008210800082DE9F0474FF0B0083C
:100A100084B0054600F1080700F18F0600F28F4907
:100A20004FF47A744FF0000A297B022303AA009442
:100A300038468DF80CA08DF80D8004F0A9FD297BB7
:100A4000022303AA00943846ADF80CA004F0A0FDE0
:100A50004FF4805C297B02230094A6F1800403AA52
:100A60003846ADF80CC004F093FD4FF47A7014F8DA
:100A700001CF4FF0400E297B0223009003AA384695
:100A80008DF80CE08DF80DC004F082FDB442ECD17D
:100A900004F1800608F101084E455FFA88F8BFD1DD
:100AA00004B0BDE8F08700BF7F2914D83F2A12D8D0
:100AB0004FEAD20C02F0070201EBCC114FF0010C0F
:100AC00008440CFA02F1027C13B10A430274704725
:100AD00022EA0102027470472DE9F04F83B05D1ADB
:100AE0000C9E002D9DF83490A6EB0208B8BF6D4215
:100AF000B8F1000FB8BFC8F100088B4294BF4FF0A7
:100B0000FF3A4FF0010A9642A5EB080E4DD84FF080
:100B1000FF347F2B019412D83F2E10D8F40806F032
:100B200007074FF0010C03EBC4140CFA07FC044454
:100B3000277CB9F1000F3FD047EA0C0727748B429E
:100B400001D1964229D0C8F100077F2914D83F2A45
:100B500012D8D40802F0070B4FF0010C01EBC414BB
:100B60000CFA0BFC044494F810B0B9F1000F17D044
:100B70004BEA0C0B84F810B0B7EB4E0F4FEA4E0463
:100B800002DAAEEB080E5144A54202DD019CAE44F0
:100B900022449942D9D19642D7D103B0BDE8F08F13
:100BA0002BEA0C0B84F810B0E6E701243F2E0194E9
:100BB000C9D87F2BB2D9C6E727EA0C078B42277426
:100BC000BFD0C0E7000000002DE9F04F2DED068BEF
:100BD00083B0164698460D469DF850700190DDE9A9
:100BE00012231344139A002A04DA52421392129ADF
:100BF0001293134607EE903AB8EEE76BDDED127AEA
:100C00009FEDD15BB8EEE77B9FEDD14B27EE057BE7
:100C100026EE056B87EE040B86EE04ABF7EEC08B79
:100C2000B0EE680A12F0D4FFB7EECAAB07EE908AB6
:100C3000B0EE408AB0EE680AF8EE679A12F0D8FE7D
:100C4000F0EE408AB0EE4A0A12F0C2FFB0EE409ACF
:100C5000B0EE4A0A12F0CCFE68EEE98A20EE690A8C
:100C600029EE888A29EE899A70EE687AF0EE006A99
:100C700039EE487A67EEA77AE7EE077AF4EEE67A7D
:100C8000F1EE10FA06D5139BB42B40F39C804FF085
:100C9000010901E04FF000090124AE46C8F100034C
:100CA000CDF80090A4EB0800214622464FF0000C3E
:100CB000A0402546B946F046009F002F6AD1594210
:100CC00006EE90CACCF1000207EE901AB8EEE66A82
:100CD00006EE903AB8EEE77A07EE902A66EE084AFA
:100CE000139AF8EEE77A27EE284AB42AF8EEE66A75
:100CF00067EE885A74EEC43A26EEA85A26EE096AC0
:100D000066EE806A67EE897A27EE007AF5EEC03AE1
:100D100040F3F380F1EE10FA00F15B8176EE473A92
:100D200074EEC54AF5EEC03AF1EE10FAF5EEC04A9F
:100D3000CCBF01220022F1EE10FA00F1538136EE11
:100D4000666A35EEC55AB5EEC06AF1EE10FAB5EE38
:100D5000C05ACCBF01210021F1EE10FA00F14B8105
:100D600077EEE66AF5EEC06AF1EE10FACCBF012428
:100D7000002475EEC45AF5EEC05AF1EE10FA00F1F7
:100D8000238177EEC77AF5EEC07AF1EE10FACCBF88
:100D900001250025002A40F08B80002965D1BCB9CF
:100DA000C5BB844558DB0CF1010C00EB4C0E1CEB71
:100DB000030F0EF1010E00F0C18083424FDB70463D
:100DC000002B7FF779AF03B0BDEC068BBDE8F08F49
:100DD00003EB080EA6EB0C0ABEF17F0FE0D8BAF1C8
:100DE0003F0FDDD84FEADA0B019F0AF0070A0EEB3E
:100DF000CB1E4FF0010BBE440BFA0AFB9EF810A06D
:100E0000B9F1000F00F0A8804AEA0B0A8EF810A092
:100E1000002DC6D0A8EB030EA6EB0C0ABEF17F0F87
:100E2000BFD8BAF13F0FBCD84FEADA0B019F0AF0E6
:100E3000070A0EEBCB1E4FF0010BBE440BFA0AFB68
:100E40009EF810A0B9F1000F00F093804AEA0B0A57
:100E500084458EF810A0A6DA83428646AFDA0133C5
:100E60000EEB430E0EF10100AAE703EB080E0CEBAC
:100E7000060ABEF17F0F92D8BAF13F0F8FD84FEA22
:100E8000DA0B019F0AF0070A0EEBCB1E4FF0010BA5
:100E9000BE440BFA0AFB9EF810A0B9F1000F60D017
:100EA0004AEA0B0A8EF810A0002C3FF479AF8FE7C6
:100EB000A8EB030E0CEB060ABEF17F0F3FF66DAFF9
:100EC000BAF13F0F3FF669AF4FEADA0B019F0AF024
:100ED000070A0EEBCB1E4FF0010BBE440BFA0AFBC8
:100EE0009EF810A0B9F1000F48D04AEA0B0A8EF81C
:100EF00010A000293FF453AFB7E7F1EE10FA59D430
:100F0000009A74EEC54AF5EEC04AF1EE10FA47D4E5
:100F1000002135EEC55AB5EEC05AF1EE10FA35D4BF
:100F2000002475EEC45AF5EEC05AF1EE10FA3FF502
:100F300028AF0025002A3FF430AFB9E783428EDBAB
:100F400000203AE7AFF300807A008BFCFA210940D9
:100F500000000000008066402AEA0B0A8EF810A00C
:100F60001EE72AEA0B0A8EF810A0002C3FF418AFF7
:100F70002EE72AEA0B0A8EF810A012E72AEA0B0ADB
:100F80008EF810A000293FF40AAF6EE777EEE66A0C
:100F9000F5EEC06AF1EE10FACCBF01240024C0E7E0
:100FA00036EE666AB5EEC06AF1EE10FACCBF0121EA
:100FB0000021AEE776EE473AF5EEC03AF1EE10FAD0
:100FC000CCBF012200229CE70125002A3FF4E5AEB8
:100FD0006EE774EEC54A0122F5EEC04AF1EE10FA52
:100FE0007FF5ADAE35EEC55A0121B5EEC05AF1EE32
:100FF00010FA7FF5B5AE0124BBE600BF2DE9F04F36
:101000008BB00D780AAC9DF850B004E90C00002DAF
:1010100000F09880099A2E469DF8208007925A4643
:1010200045469DF821308B4680461746A6F12004A0
:10103000E2B25E2A7CD8D8F800207149D2688A4290
:1010400040F0A3808020B8F804202A4482426FDC5C
:10105000D8F800206B4992688A4240F09B8040207B
:10106000B8F8069009EB0302824261DCB8F804107C
:10107000002B71D003FB04F46FF000420798224468
:101080001C4400EB4202023800EB440002F1020A69
:101090004C46B2F802C00190002D00F0A98001F189
:1010A0001002CDF818B09346CDE90269CDE90431BC
:1010B00004F007024FF0010EE0086FF00F060EFA81
:1010C00002FE00210BEBC0126FEA0E0908EBC01004
:1010D0005FFA8EFE42445FFA89F9361A09E023B9B5
:1010E0001378B7B14EEA0303137001310132A942FC
:1010F00017D0B3180CFA01F03F2C98BF7F2B8CBF90
:10110000012300230004EAD4002BEED11378002F32
:10111000E8D0013109EA03030132A94202F8013C97
:10112000E7D1019B0134534510D03AF802CFBFE715
:1011300000269BF80000B04205D11BF8016F002E7D
:101140007FF474AF00200BB0BDE8F08FDDE90269D9
:10115000DDE90431DDF818B06C18D8F80010284823
:10116000CA68A4B282422ED1802C28BF7F248A680C
:101170002449A8F804408A4211D1B9F13F0F01D99E
:101180004FF03F09A8F80690D3E7019340469047F7
:10119000019B58E7019340469047019B60E701930C
:1011A000404690478145019BECD3D8F80020154973
:1011B00092688A42E4D0019340469047421E019BC8
:1011C0001FFA82F9DEE70193404690478442D8F83F
:1011D0000010019BCBD3CA68094882420ED001930C
:1011E00040469047441ED8F80010A4B2019BBEE7C9
:1011F000019A92450AF1020AFBD1ADE77F24B6E7D6
:1012000025080008210800082DE9F04F0546104682
:1012100087B01E4610F8013B91460C46109F9DF882
:1012200048801BB1FFF78CF8431C9BB23A6896F8D4
:1012300000E070781EFB03FE42F30F43B7F900C0D5
:101240000FFA80FA059313B20FFA8EFEB7F902B0C7
:101250000493B7F906302EEAEE7EB7F90410039333
:10126000119B082B00F20281DFE813F0400081009F
:101270008B009E00AD00BF00D500E8000900039B75
:101280000CEB0107A5F806A0002BA7EB0E07A5F8AD
:1012900004E0B8BF0133BFB20BEB63032F80A3EBB5
:1012A0005A031FFA83FAA5F802A02368DFF8ECB10D
:1012B000DA685A4539D1802F28BF7F279B68A780DD
:1012C000754FBB4244D1BAF13F0F01D94FF03F0AED
:1012D000A4F806A04946CDF80080204696E80C0008
:1012E000FFF78CFE284607B0BDE8F08F0029039B6E
:1012F000A5F806A0B8BF0131002BA5F804E0B8BFDF
:1013000001330CEB61070BEB630B2368A7EB6E0754
:10131000ABEB5A0ADA68DFF884B1BFB21FFA8AFA77
:101320005A452F80A5F802A0C5D020469047B84264
:101330002368C3D8DA685A4500F096802046904763
:10134000471E2368BFB29B68A780534FBB42BAD0E9
:10135000204698475045BBD823689B68BB42B5D010
:101360002046984700F1FF3A1FFA8AFAB0E7A5F83D
:1013700006A0BDF81070BDF814A02A60A5F804E01E
:1013800093E70B1E049AA5F806A0B8BF0133BDF879
:1013900014A0A5F802B002EB6307A5F804E0A7EBE0
:1013A0006E07BFB22F8080E7049FA5F806A00F4408
:1013B000BDF814A0A5F802B0A7EB0E07A5F804E04D
:1013C000BFB22F8071E7059B039AA5F806A01A44C7
:1013D000BDF81070A5F800C0A2EB000AA5F804E063
:1013E0001FFA8AFAA5F802A05FE70029039BA5F877
:1013F00006A0B8BF01319B44A5F804E00CEB6101E5
:10140000ABEB000AA1EB6E031FFA8AFA9FB2A5F8B4
:1014100002A02F8049E7039B0CEB0107A5F806A06B
:101420009B44A7EB0E07A5F804E0ABEB000ABFB2A4
:101430001FFA8AFA2F80A5F802A036E7039B059AC7
:10144000002BA5F806A0BDF81070B8BF0133A5F8B1
:1014500000C0A5F804E002EB6303A3EB5A031FFAF4
:1014600083FAA5F802A020E77F2727E723684FF03B
:10147000000ADFF828B0DA68C5F800A05A45C5F8B8
:1014800004A007D19B68044FA4F804A0BB423FF41A
:101490001FAF5DE7574648E7210800082508000808
:1014A0002DE9F04F85B096469C469DF840400E9B36
:1014B0009DF83C207CB361452AD89E4525D87F29DC
:1014C000754694BF0027012706E048EA060884F81D
:1014D00010800135AB4218D3EC083F2D05F007080A
:1014E0004FF0010601EBC414F3D8002FF1D10444EE
:1014F00006FA08F694F81080002AE6D1013528EAA9
:101500000608AB4284F81080E6D201318C45D4D273
:1015100005B0BDE8F08FACEB0109B9F1000FB8BF21
:10152000C9F100096145C0F03B81BCF17F0F4FF06C
:10153000FF3A94BF00270127BEF13F0F94BF4FF041
:10154000000B4FF0010BA7B9BBF1000F11D14FEA0F
:10155000DE040EF0070501260CEBC414AE40044473
:10156000257C002A00F06881354325744FF0000B7C
:101570005F46614526D0C84675460E4601970E93D4
:101580007F2E10D83F2D0ED8EC08012706EBC4148F
:10159000031905F0070407FA04F41F7C002A00F081
:1015A0001F8127431F744FEA4804002CC8BF5644CC
:1015B000A14501DDC844013DB445E1D1AE45DFD1CF
:1015C000019F0E9BA3EB0E09B9F1000FB8BFC9F143
:1015D00000099E4580F00D813F2BC9F1000894BFA2
:1015E00000240124002F40F03F81002C40F03C817A
:1015F00001240194DC0803F0070501260CEBC41458
:10160000AE400444257C002A00F01E813543257439
:1016100000249E452DD0C24675466646CDE902B4EB
:101620007F2E14D83F2D12D8EC084FF0010B05F097
:10163000070706EBC4140BFA07F7044494F810B03C
:10164000002A00F0D1804BEA070B84F810B0BAEB07
:10165000480F4FEA480402DAA8EB0908013E002CC3
:1016600001DA019C2544B445DAD1AB42D8D1DDE999
:1016700002B4A1EB0C08B8F1000FB8BFC8F1000824
:10168000614540F2CC807F294FF0010994BF0026CC
:1016900001268CB986B9DC0803F00705012601EBA9
:1016A000C414AE400444257C002A00F0D1803543A8
:1016B00025740026614526D047461D460196BCF19B
:1016C0007F0F13D83F2D11D8EC084FF0010A0CEB17
:1016D000C414061905F007040AFA04F496F810A0D9
:1016E000002A78D04AEA040A86F810A07C00002C70
:1016F000C8BFCC44A04501DD4744013D6145DED172
:10170000AB42DCD1019EAEEB030CBCF1000FB8BFC5
:10171000CCF1000C9E4578D9CCF10007002E40F0AA
:101720009F80BBF1000F40F09B804FF001094FEA12
:10173000DE040EF00705012601EBC414AE4004449C
:10174000257C002A7CD0354325749E453FF4E0AECD
:10175000B8460D467F2D11D83F2B0FD8DC0803F07B
:10176000070A012605EBC41406FA0AF6044494F8A5
:1017700010A05AB34AEA060A84F810A0B8EB470F43
:101780004FEA470402DAA7EB0C07013D002CB8BF73
:101790004B44A942DED19E45DCD105B0BDE8F08FB7
:1017A000BEF13F0F4FF0010A94BF4FF0000B4FF016
:1017B000010BBCF17F0F94BF00270127BBF1000F85
:1017C0007FF4D9AE002F3FF4C2AED4E62AEA060A6F
:1017D00084F810A0D2E72AEA040A86F810A085E768
:1017E00027EA04071F74DEE62BEA070B84F810B023
:1017F0002DE73F2BC9F1000894BF002401245FBBF3
:1018000054BB4FF0FF340194F4E6CCF100074FF0E5
:10181000FF39002E99D1BBF1000F88D095E77F29C1
:101820004FF0FF3994BF00260126002C7FF442AF11
:10183000002E3FF430AF3DE725EA0605257495E616
:1018400025EA0605257480E725EA06052574DFE606
:1018500025EA060525742CE74FF0FF350195D8E6FB
:10186000B8464FF0010974E70125C2460195D3E659
:1018700070B5541821EAE171802CA8BF8024A142E0
:1018800026DA7F2894BF0025012506E042EA0E02F1
:101890008CF810200131A1421AD04FEAD10C3F2917
:1018A0000C4A01F0070600EBCC1C4FF0010EF1D8FA
:1018B0009444002DEED10EFA06FE9CF81020002B69
:1018C000E4D1013122EA0E02A1428CF81020E4D1C9
:1018D00070BD00BF30070024C249012309222DE951
:1018E000F04FB1F90050CBB0044600202946DFF894
:1018F00020B3FFF7BDFF294609221846FFF7B8FFBE
:10190000B94909227E20B1F900502946FFF7B0FFFE
:10191000294684EAE47509227F20A5EBE475FFF7E8
:10192000A7FF3722E10F092DCBF80420029140F2E6
:101930004B83632D40F24583B5F57A7FC0F03E833B
:1019400042F20F739D4240F23683A84B9D4240F213
:101950003083A74B9D4240F24F83A64B9D42C0F07F
:10196000E782A54B9D4240F21483A44B9D4240F276
:101970000D830927791C029B0DAA0BA817AE1944E9
:1019800008920B922D2211F0F8FF0B9C029BC922AA
:101990009B4930461C4412F0CDFC632D40F2A282DC
:1019A000781E2A462044974B6421174642F20F7C4A
:1019B000A3FB02E367454FEA531301FB13211A46C9
:1019C00036F8113020F80239EDD8B7F57A7F80F07B
:1019D0008A8202F13003DBB223700B988A4A0378C3
:1019E00092F800A054785768BBF80480002B00F0F0
:1019F00090804146BE46A0461C4653460995A4F138
:101A00002002D5B25E2D00F2EA805E18802E00F32F
:101A1000E680BBF8065005EB0807402F00F3DF8097
:101A2000B8F1000F60D008FB02F26FF0004CAEF18D
:101A30000207944442440EEB4C0C07EB42022F4643
:101A40000CF10209BCF802C0002B49D001F1100AC8
:101A500031460192CDF81C80CDE90340CDE9055E09
:101A600007F007004FF0010EFE0800240EFA00FEFA
:101A70000AEBC6106FEA0E08F6015FFA8EFE5844B4
:101A80005FFA88F8424608E01DB905784EEA050578
:101A9000057001340130A3421AD06FF00F050CFA23
:101AA00004F8A5EB0B05AD1B05443F2F98BF7F2D18
:101AB0008CBF0125002518F4004FE5D1002DE8D199
:101AC0000578013401301540A34200F8015CE4D1EF
:101AD000019A01374A4500F0F58139F802CFBFE796
:101AE000914509F10209FBD1B1B27F2928BF7F21BD
:101AF000402D08BF3F25ABF80410ABF80650027824
:101B0000A24204D110F8014F002C7FF478AF884630
:101B1000099D3E4A92F800C00CEB0800802800F3B3
:101B200087805378BBF8061001EB030ABAF1400F27
:101B30007EDC002B71D003EB430452680E4603EBAE
:101B4000840302EB830932F8237009F10209BCF126
:101B5000000F62D008F110030246CDE9031501938E
:101B600006F007014FF0010EF508019B0EFA01FE89
:101B7000002003EBC5116FEA0E08ED015FFA8EFE3F
:101B800059445FFA88F8434608E01CB90C784EEADD
:101B900004040C700130013184451AD06FF00F0439
:101BA00007FA00F8A4EB0B04641B0C443F2E98BF0B
:101BB0007F2C8CBF0124002418F4004FE5D1002CA9
:101BC000E8D10C78013001311C40844501F8014C0A
:101BD000E4D1013656451DD039F8027BC0E7002418
:101BE0008DE700BF58060024540600249F8601009C
:101BF0003F420F0080969800FFE0F505FFC99A3B31
:101C0000305501081F85EB511401002424010024E4
:101C100030070024DDE90315104683B27F2B28BF6F
:101C20007F23402908BF3F21ABF80430ABF80610F2
:101C3000092D40F2B181632D40F25E81B5F57A7FC6
:101C4000C0F0CF8142F20F739D4240F2CE81C54B6E
:101C50009D4240F2AC81C44B9D4240F2CA81C34BCD
:101C60009D42C0F06181C24B9D4240F28B81C14BCD
:101C70009D4240F272814FF0090808F10101029E75
:101C800013AC2D2211A83144119411F076FE119F4E
:101C9000B949C922374417AE304612F04BFB08F160
:101CA000FF313944B54B6422284642F20F7CA3FB36
:101CB00005E360454FEA531302FB13521D4636F805
:101CC000123021F80239EDD8B0F57A7F80F0238107
:101CD00005F13003DBB23B70119AA94B93F800A0D9
:101CE0005D78D3F804C01378002B00F0928009943B
:101CF00010461C46A846E64653460792A4F1200229
:101D0000D1B25E2900F2DC80BBF80410CE18802E20
:101D100000F3D680BBF8065005EB0807402F00F310
:101D2000CF80B8F1000F5FD008FB02F26FF0004CDB
:101D3000AEF10207944442440EEB4C0C07EB420216
:101D40002F460CF10209BCF802C0002B48D001F16B
:101D5000100A31460192CDF818E0CDE90284CDE9B0
:101D6000040507F007004FF0010EFE0800240EFAEC
:101D700000FE0AEBC6106FEA0E08F6015FFA8EFE4F
:101D800058445FFA88F8424608E01DB905784EEAE3
:101D90000505057001340130A3421AD06FF00F051C
:101DA0000CFA04F8A5EB0B05AD1B05443F2F98BFBB
:101DB0007F2D8CBF0125002518F4004FE5D1002DA3
:101DC000E8D10578013401301540A34200F8015CE8
:101DD000E4D1019A013791457CD039F802CFC0E7B0
:101DE000914509F10209FBD1B2B27F2A28BF7F22B7
:101DF000402D08BF3F25ABF80420ABF80650027811
:101E0000A24204D110F8014F002C7FF477AF079A5B
:101E1000099C0C21C80801F0070501230BEBC01039
:101E20001944AB4090F84F50112943EA050380F85C
:101E30004F30EFD11621C80801F0070501230BEB45
:101E4000C0101944AB4090F84F501B2943EA0503DA
:101E500080F84F30EFD19BF84F0234219BF8CF32FE
:101E600040F01F0043F07C038BF84F028BF8CF3219
:101E7000C80801F0070501230BEBC0101944AB4063
:101E800090F84F50392943EA050380F84F30EFD1DD
:101E90009BF8CF33A24263F03F038BF8CF3304D0DB
:101EA00013991046013111F02EFD0B98089B9842B2
:101EB00003D00D99013111F026FD4BB0BDE8F08F34
:101EC00000249CE7DDE90340DDE9055EDDF81C80C8
:101ED0000E4609E6DDE90284DDE90405DDF818E0D7
:101EE0000E4681E72A464AAB03EB420212F8CB3C8E
:101EF000637012F8CC3C6FE5029E13AC2D2211A842
:101F0000B11C119411F039FD119FC9221A4917A86B
:101F1000374412F00FFA4AAB03EB450313F8CB2C0E
:101F200013F8CC3C7A70D6E64FF006080721A6E6F7
:101F300006270721029B0DAA0BA817AE1944089289
:101F40000B922D2211F019FD0B9C029BC9220A490C
:101F500030461C4412F0EEF922E5092101F1FF3868
:101F60008DE600BF9F8601003F420F0080969800DB
:101F7000FFE0F505FFC99A3B305501081F85EB517D
:101F8000140100244FF00708082178E609214F1EAC
:101F9000D0E707270821CDE7029E13AC2D2211A818
:101FA000711C119411F0E9FC119F374490E6052152
:101FB000D4E70521EBE703270421BBE70227032130
:101FC000B8E702211F46D6E4029E0DAB2D220BA8D6
:101FD000711C08930B9311F0D0FC0B9C2A463444DF
:101FE000F7E44FF00208032149E64FF0030804210B
:101FF00045E64FF0050840E60527BBE4F8B5384D47
:102000002B68013B3C2B03D9364A13685B421360B3
:10201000354C23685A1E7C2A0ED9344F344E3B6807
:10202000002B10DC002B19DB32682368042A4FD008
:10203000304A1268042A4BD0022B22D82B4A13684C
:10204000002B27DBF8BD31682B480131316002F0ED
:10205000E5F93B682022002B2260E5DA254F316844
:102060003B68254801333B6002F0D8F932686023B1
:10207000042A236030D03A68042AE3D11F4A02219F
:1020800011607C3B022BDDD8184A1368002BD9DD88
:102090001B4900E01B4991ED007AB0EE005B95ED25
:1020A000006AB8EEC77BB8EEC66B37EE455BB4EEA0
:1020B000C56BF1EE10FAC5DDB2EE025B37EE057BC3
:1020C000B4EEC76BF1EE10FABCD55B421360F8BDFD
:1020D0000A4A02211160AFE7084B02221A60F8BDDC
:1020E0000C00002404000024100000240800002438
:1020F000500600244C060024FC5501085C06002410
:1021000054060024580600242DE9F04F214FDFF833
:102110009490D7F80080D9F800A00FFA88F50FFA4C
:102120008AFC05F1020E25EAE5750CF10206BEF106
:10213000800FA8BF4FF0800E754519DABCF17F0FF4
:102140002B4694BF00240124DA0803F007014FF066
:10215000010B11480CEBC2123F2B0BFA01F15B444F
:10216000104403D814B9027C114301747345EBD1B8
:102170000CF1010C0FFA8CFCB445DDDB074B1A683F
:10218000074B52441B68C9F8002043443B60BDE83C
:10219000F08F00BF0C00002430070024080000244A
:1021A000040000241000002484B030B585B004463B
:1021B00009AD85E80E009DF8383029464FF47A7550
:1021C000037103F055F94FF42E4200950223217953
:1021D0002046ADF80C2003AA03F0DAF94FF455427B
:1021E0000095022321792046ADF80C2003AA03F0C4
:1021F000CFF94FF400420095022321792046ADF833
:102200000C2003AA03F0C4F94FF4284200950223DE
:1022100021792046ADF80C2003AA03F0B9F94FF458
:102220007C520095022321792046ADF80C2003AAA8
:1022300003F0AEF94FF45A4200950223217920466B
:10224000ADF80C2003AA03F0A3F94FF490520095C7
:10225000022321792046ADF80C2003AA03F098F957
:102260004FF453420095022321792046ADF80C200B
:1022700003AA03F08DF9002200950223217920465C
:10228000ADF80C2003AA03F083F94FF480420095C7
:10229000022321792046ADF80C2003AA03F078F937
:1022A0004FF426420095022321792046ADF80C20F8
:1022B00003AA03F06DF94FF424420095022321791B
:1022C0002046ADF80C2003AA03F062F94FF40D424A
:1022D0000095022321792046ADF80C2003AA03F0D3
:1022E00057F94FF4A0520095022321792046ADF80A
:1022F0000C2003AA03F04CF94FF42142009502236D
:1023000021792046ADF80C2003AA03F041F94FF4DF
:1023100048420095022321792046ADF80C2003AAFB
:1023200003F036F94FF4014200950223217920464B
:10233000ADF80C2003AA03F02BF94FF40F420095DF
:10234000022321792046ADF80C2003AA03F020F9DE
:102350004FF459420095022321792046ADF80C2014
:1023600003AA03F015F94FF41452009502232179C2
:102370002046ADF80C2003AA03F00AF94FF45B42A3
:102380000095022321792046ADF80C2003AA03F022
:10239000FFF84FF450520095022321792046ADF802
:1023A0000C2003AA03F0F4F84FF42F410095022308
:1023B000ADF80C1003AA2179204603F0E9F805B026
:1023C000BDE8304004B070472DE9F0434FF0B0084D
:1023D00085B0054600F1870700F287494FF47A740B
:1023E00000262979022303AA009428468DF80C6060
:1023F0008DF80D8003F0CCF82979022303AA00940C
:102400002846ADF80C6003F0C3F84FF480562979E4
:1024100002230094A7F1800403AA2846ADF80C60BB
:1024200003F0B6F84FF47A7614F801CF4FF0400E6F
:102430002979022303AA284600968DF80CE08DF82E
:102440000DC003F0A5F8BC42ECD104F1800708F1FF
:1024500001084F455FFA88F8C0D105B0BDE8F083A8
:102460002DE9F04FA2480024A24DDFF8C4B22DEDB3
:10247000028B99B000F082FC00219D4800F076FDAF
:10248000002002F02FF810213C2212AB12948DF89C
:102490004C108DF8502093E80700CDE90F450FADA3
:1024A00011948DE80700944895E80E00FFF77CFE34
:1024B0004FF480622146914811F0A4FE8E48FFF748
:1024C00083FF04218A4800F07BFC0321884800F048
:1024D0005BFC8B49864800F053FC0123ADF8284093
:1024E0001A469FED880A0A998748009402F02EF850
:1024F00040F6033201230094ADF82C2002249FED16
:10250000810A1A4681480B9902F020F8ADF8304054
:10251000284622460C9902F017F94FF440732246E0
:102520000DF14E00ADF834300D9902F00DF9042391
:1025300022462946764802F01BF9754802F00EFB48
:102540000021734802F01EFB08EE100A01217048BA
:1025500002F018FBB8EEC87B06EE100A6D4B6A4815
:10256000B8EEC66B9FED605B27EE057B26EE056B34
:10257000BDEEC77BBDEEC66B83ED007A664B83ED87
:10258000006A02F00DF8614802F00AF85E4A137919
:10259000002B40F02B81937AFF2B00F037815B4AB0
:1025A000137933B1937A7F2B00F05183802B00F0A5
:1025B0004A835549594A0B7912681BB18B7A802B93
:1025C00000F02E81554B1B68002B00F04581012B3C
:1025D00000F0CD82022BB3D1514B1968514B1C46F0
:1025E0001868FFF779F92368022B00F04D834C4BF4
:1025F0001B68022B00F04C834B4B57224B4C5F68FF
:1026000093F800A0BE4658785746203AD3B25E2BC6
:1026100000F2A480BBF8049009EB0701802900F3C5
:102620009D80BBF806301D18402D00F397800028D0
:1026300000F0848000FB02F26FF00045AEF1020A68
:10264000154402440EEB45061D460AEB420A06F10C
:1026500002087688002F6DD009F110090991CDE9A3
:1026600005E4CDE9070305F007024FF0010CEC0883
:1026700000210CFA02FC09EBC4126FEA0C0EE40113
:102680005FFA8CFC5A445FFA8EFE734608E018B974
:1026900010784CEA00001070013101328F421AD0DC
:1026A0006FF00F0006FA01FEA0EB0B00001B1044B8
:1026B0003F2D98BF7F288CBF012000201EF4004FC3
:1026C000E5D10028E8D110780131013218408F425D
:1026D00002F8010CE4D1C24505F1010500F09A8031
:1026E00038F8026FBFE700BF000000000000473F5E
:1026F000400B00240108010938070024400700248A
:10270000E107000800401C462007002410070024B1
:10271000580B002458060024540600245C060024AC
:102720004C060024500600242401002418560108F9
:1027300030070024C24508F10208FBD18AB27F2A83
:1027400028BF7F22402BABF8042008BF3F2314F89A
:10275000012FABF80630002A7FF457AFAB4DB026FF
:102760004FF47A74002702230EAA9BF80C100094F1
:10277000A7488DF839608DF8387002F009FF022300
:102780000EAA9BF80C100094A148ADF8387002F026
:10279000FFFE4FF480530094A5F180040EAAADF81B
:1027A000383002239BF80C10994802F0F1FE4FF4E8
:1027B0007A730EAA9BF80C100093402394488DF86E
:1027C000383014F8013F8DF83930022302F0E0FE72
:1027D000A542ECD101368035F6B2B82EC0D14FF407
:1027E000806200218B4811F00DFDA9E68A4B9B7A8F
:1027F0007F2B00F01D82802B7FF4CEAE874801F046
:102800000DFE854B9B7AFF2B7FF4C9AE844801F007
:1028100005FEC4E6DDE905E4DDE9070309998DE776
:10282000002A00F02A82013A012A3FF689AE0023ED
:102830007C4A0A2013607C4A13607C4A1360402360
:102840007B4A136020237B4A136003F027FE754BFD
:102850001B68002B7FF4BBAE774801F0DFFD774BA0
:10286000774C5022CBF80430764B5F6893F800A089
:10287000BE4658785746203AD3B25E2B78D8BBF87C
:10288000049009EB0701802972DCBBF806301D18A3
:10289000402D6DDC00285CD000FB02F26FF000459B
:1028A000AEF1020A154402440EEB45061D460AEB42
:1028B000420A06F102087688002F46D009F1100975
:1028C0000991CDE905E0CDE9074305F007024FF096
:1028D000010CEC0800210CFA02FC09EBC4126FEAAF
:1028E0000C0EE4015FFA8CFC5A445FFA8EFE7346CC
:1028F00008E018B910784CEA00001070013101327C
:10290000B9421AD06FF00F0006FA01FEA0EB0B00DF
:10291000001B10443F2D98BF7F288CBF0120002052
:102920001EF4004FE5D10028E8D1107801310132C2
:102930001840B94202F8010CE4D1D04505F1010577
:1029400000F0708138F8026FBFE7D04508F1020847
:10295000FBD18AB27F2A28BF7F22402BABF804200C
:1029600008BF3F2314F8012FABF80630002A82D1AC
:10297000354B7022354CCBF80430354B5F6893F8FB
:1029800000A0BE4658785746203AD3B25E2B00F2DC
:10299000A180BBF8049009EB0701802900F39A801D
:1029A000BBF806301D18402D00F39480002800F07D
:1029B000818000FB02F26FF00045AEF1020A15447F
:1029C00002440EEB45061D460AEB420A06F10208D8
:1029D0007688002F6AD009F110090991CDE90540E8
:1029E000CDE9073E05F007024FF0010CEC0800218D
:1029F0000CFA02FC09EBC4126FEA0C0EE4015FFA58
:102A00008CFC5A445FFA8EFE73462CE0BF0700240C
:102A100038070024400700242007002444560108FA
:102A2000645601085C060024500600244C0600246D
:102A3000100000240C000024CC56010825000600DC
:102A400000560108240100241B0014000856010848
:102A50001C01002418B910784CEA000010700131F4
:102A60000132B9421AD06FF00F0006FA01FEA0EB56
:102A70000B00001B10443F2D98BF7F288CBF012006
:102A800000201EF4004FE5D10028E8D11078013174
:102A900001321840B94202F8010CE4D1D04505F1E9
:102AA000010500F0B98038F8026F9BE7D04508F1C6
:102AB0000208FBD18AB27F2A28BF7F22402BABF8C5
:102AC000042008BF3F2314F8012FABF80630002A7A
:102AD0007FF45AAF704DB0264FF47A74002702236A
:102AE0000EAA9BF80C1000946C488DF839608DF894
:102AF000387002F04DFD02230EAA9BF80C100094D2
:102B00006648ADF8387002F043FD4FF480530094EE
:102B1000A5F180040EAAADF8383002239BF80C1002
:102B20005E4802F035FD14F8013F4FF47A729BF8CD
:102B30000C108DF83930402300920EAA8DF83830F1
:102B40000223564802F024FDAC42ECD1013604F1D8
:102B50008005F6B2B82EBFD14FF4806200215048F4
:102B600011F050FB4F4B1B68012B7FF433AD4E4BE4
:102B7000B026494D19684D4B1868FEF7ADFEFFF7BA
:102B80003DFAFFF7C1FA4FF47A74002702230EAA28
:102B90009BF80C10009441488DF839608DF838701E
:102BA00002F0F6FC02230EAA9BF80C1000943B489E
:102BB000ADF8387002F0ECFC4FF480530094A5F1AE
:102BC00080040EAAADF8383002239BF80C1033486D
:102BD00002F0DEFC14F8013F4FF47A729BF80C10FF
:102BE0008DF83930402300920EAA8DF83830022338
:102BF0002A4802F0CDFCAC42ECD1013604F180054C
:102C0000F6B2B82EBFD14FF480620021244811F0F3
:102C1000F9FA244B1B68DDE4DDE90540DDE9073EF8
:102C2000099947E7DDE905E0DDE90743099990E601
:102C30001F4801F0F3FB1F4B1B79002B3FF4E1AD64
:102C40001C4B9B7AD7E51C4801F0E8FBB1E41B481C
:102C500001F0E4FB1A4A1379002B3FF4AAAC937AF3
:102C600014467F2B7FF4A2AC164801F0D7FB2379E2
:102C7000002B3FF49EACA37A98E40123094A0A2072
:102C8000136003F00BFC9DE40F4BCBF80430B3E46E
:102C90000E4BCBF80430AFE4BF0700243807002404
:102CA000400700245C0600244C0600245006002443
:102CB0002456010820070024AC5601087C56010860
:102CC000100700248C56010807001E0026001E0075
:102CD00038B51B4C00251B4822461B490560456141
:102CE0000562C56310F00AFE18482246184B85603D
:102CF000184D1949036010F001FE22462946174875
:102D000010F0FCFD2946164D2246164810F0F6FD3F
:102D100022462946144810F0F1FD2946134D22465B
:102D2000134810F0EBFD22462946124810F0E6FD4C
:102D3000224629461048BDE8384010F0DFBD00BFEC
:102D400000000024400B0024DD07000830070024A9
:102D50008C570108D10700081D080008200700242F
:102D6000D907000810070024D8060024D50700085A
:102D7000A00600248006002460060024704700BFDF
:102D8000143001F017BB00BF38B500F1140504463C
:102D90002DED028B284601F0CBFA284601F0C4FA4B
:102DA0002846B0EE408A01F0ADFAD0ED007AF8EE98
:102DB000677A88EE277ABDEC028B84ED0E7A38BDF7
:102DC00038B500F1140504462DED028B284601F0BC
:102DD0009DFA284601F0A8FA2846B0EE408A01F094
:102DE00091FAD0ED007AF8EE677A88EE277ABDEC9A
:102DF000028B84ED0E7A38BD10B540F203318EB0EF
:102E000000244FF60B7340F20342ADF8081002990C
:102E100009A8ADF81030ADF824300123ADF80C202E
:102E20002246009407940C94CDE90544CDE90A4468
:102E300001F094FF04A8012322460399009401F0B5
:102E40008DFF09A802F098F810B901200EB010BD4E
:102E500004A802F091F880F00100C0B240000EB06A
:102E600010BD00BF2DE9F04103239AB001270024D3
:102E7000149306463A4B1094119340F2045315975D
:102E8000ADF84830CDE91647FFF7B6FFB842054622
:102E900043D0022832D1334B40F601320DF12C08D9
:102EA0000094CDF84A304FF60B73ADF81820404629
:102EB00006993A46ADF82C3023460E94CDE91847D2
:102EC000CDE90C4401F04AFF2146404602F060F88B
:102ED00010A906F13C0003F0BFF8302003224FF0A8
:102EE0007E5341460D930E93CDE90B02F26B06F132
:102EF000140001F0CFF91AB0BDE8F08140F60132BC
:102F0000184B0DF12C08ADF82C200B98CDF84A3059
:102F1000CDE9184700F094F8DAE71023114A06A922
:102F200006908DF828300DF12C080F4BCDF84A2073
:102F300009940294CDE90730CDE9180402A802F003
:102F400097FA0823029A03A94046ADF80C508DF871
:102F50000E40049505930B9400F0B0F8B8E700BF5D
:102F600004020404040604030704010BF0B5324B09
:102F70000446324D40F201120126271D2DED028B31
:102F8000456083B0A36003F58133ADF8042040F2BF
:102F9000027203F5807300202682E36040F6066328
:102FA00084F8276084F82B60A4F82520A4F8293041
:102FB00000918DF8060003F0D7FB68BB694604F169
:102FC000300003F031FB3946204602F07DFC04F16D
:102FD000250001F0E7FF04F1290001F0E3FF04F10F
:102FE000120000F08DF904F114052046FFF73AFFB6
:102FF000284601F099F92846B0EE408A01F082F99E
:10300000D0ED007AF8EE677A88EE277A84ED0E7AB2
:1030100003B0BDEC028BF0BD0546694604F13000FB
:103020008DF8066003F000FB072DDCD03946204602
:1030300002F04AFCD7E700BF0507050605080509A9
:1030400010B584B00346012403A8ADF80C30ADF8E8
:103050000E4001F0A7FF214603A802F08FF820469A
:1030600003F01CFA002103A802F088F8204603F0C0
:1030700015FA214603A802F081F804B010BD00BF84
:1030800010B5C2F3002384B00C46017C8DF80D20EE
:1030900043EA4402FA2402238DF80C2003AA009488
:1030A00002F076FA18B10124204604B010BD04469F
:1030B0000A2003F0F3F9204604B010BD034670B5B2
:1030C00043F8042B044684B0FA2507C983E80700B7
:1030D000A1791E23009503AA1A31ADF80C302046C1
:1030E0000223C9B2217402F053FA10B1012004B0D6
:1030F00070BD0A2003F0D2F94FF4B85200950223B4
:10310000ADF80C20204603AA217C02F041FA0028E9
:10311000ECD10A2003F0C2F941F2027200950223B9
:10312000ADF80C20204603AA217C02F031FA0028D9
:10313000DCD10A2003F0B2F9042200950223ADF895
:103140000C20204603AA217C02F022FA0028CDD1CF
:103150000A2003F0A3F9062200950223ADF80C2003
:10316000204603AA217C02F013FA0028BED10A20CF
:1031700003F094F941F2082200950223ADF80C20E7
:10318000204603AA217C02F003FA0028AED10A20CF
:103190000A2603F083F90095022303AA217C204626
:1031A000ADF80C6002F0F4F900289FD1304603F02E
:1031B00075F923790C220095002B217C8DF80C20C9
:1031C000204614BF622342236A448DF80D30022347
:1031D00002F0DEF9002889D1304603F05FF9A368D8
:1031E00000952046E268217C13432279DBB282F00D
:1031F000010243EA82136279524202F02002134331
:103200000E228DF80D3002238DF80C2003AA02F057
:10321000BFF900287FF46AAF304603F03FF910226F
:1032200000950223ADF80C20204603AA217C02F071
:10323000AFF900287FF45AAF304603F02FF912217E
:1032400000950223ADF80C1003AA217C204602F061
:103250009FF900287FF44AAF304603F01FF901229E
:1032600009212046FFF70CFF003818BF01203EE778
:10327000F0B5214D87B000240126102702A94FF494
:10328000805228460194CDE90267CDE904640AF032
:10329000DFFD642004F0BAF8022302A94FF4805243
:1032A000284602930594CDE903760AF0D1FD042364
:1032B00002A94FF4805228460397CDE90434032332
:1032C00002930AF0C5FD40F23223042202A92846E7
:1032D000019310230496CDE90223019B4FF4805201
:1032E00005930AF0B5FD40F6060128460AF0D0FD28
:1032F000204607B0F0BD00BF8C0B0024000000008A
:1033000070B51F4B88B008221E4E00214FF4006498
:103310001A614FF0020C03920A225E602026069288
:103320004022054699600320196210215C62012445
:10333000C3E905624FF4C072DC60DA6107229FEDD9
:103340000E7BCDE900C20422CDE904016946181DB7
:10335000029283ED0A7B0AF051FD38B92846FFF747
:1033600087FF003818BF012008B070BD204608B0A4
:1033700070BD00BFAFF3008000100000000000002F
:10338000880B0024404100525E4A0023F0B51468C7
:103390008FB00A93002C40F0B2805B4B01210326D2
:1033A0000C2511600227D3F8D420584842F48052EB
:1033B000C3F8D420D3F8D42002F480520092009AAB
:1033C000D3F8E02042F01002C3F8E020D3F8E02068
:1033D00002F010020192019AD3F8E02042F040027C
:1033E000C3F8E020D3F8E02002F040020292029AF3
:1033F000D3F8E02042F00802C3F8E020D3F8E02040
:1034000002F008020392039AD3F8E02042F480729B
:10341000C3F8E020D3F8E02002F480720492049A0A
:10342000D3F8E02042F08002C3F8E020D3F8E02097
:1034300002F080020592059AD3F8E02042F02002C3
:10344000C3F8E020D3F8E02002F020020692069AAA
:10345000D3F8E02042F00402C3F8E0204FF6837274
:10346000D3F8E0300B9603F004030C950793022386
:10347000079908A9CDE9082305F0E0FC48F23713C5
:1034800008A9234808930C950997CDE90A4605F049
:10349000D5FC4CF2037308A91E480893CDE90974C2
:1034A000CDE90B6505F0CAFC40F2FF6308A91A4894
:1034B0000893CDE90974CDE90B6505F0BFFC4FF623
:1034C0000C7308A915480893CDE90974CDE90B657B
:1034D00005F0B4FC4FF63F0308A911480893CDE965
:1034E0000974CDE90B6505F0A9FC202308A90B4858
:1034F00009970C950893CDE90A4605F09FFC0FB09B
:10350000F0BD00BF800B0024004402580010025898
:1035100000180258000C025800200258001C0258E3
:10352000001402582DE9F04F8BB0DFF818830646DF
:10353000BE4800AF1446796202F090FED8F8182019
:103540004369002A00F09B80D8F81C20D8F804A01A
:10355000002A15BF4FF010094FF008094FF0040B77
:103560004FF0020BBAF1000F00F09780A200E9467D
:10357000012B02F1070222F00702ADEB020D6846B3
:10358000ADEB020DEB4600F0D581022B00F052822C
:10359000002B6CD1002C6AD01A46D8ED0C6A9FED36
:1035A000A47A0146331D36F92250083107EE905AAD
:1035B00033F922500232F8EEE77A944267EE877AC6
:1035C00067EEA67A41ED027A07EE905AF8EEE77AB6
:1035D00067EE877A67EEA67A41ED017AE3D859461D
:1035E0002246D0477D6A0021D8ED0D6A9FED977A7B
:1035F0002B1D90489FED906ADFED905A2CE0F4EE81
:10360000C67AF1EE10FA80F2108267EEA57AFDEE2E
:10361000E77A17EE902A12B2DBED017A45F8212005
:1036200066EEA77AF4EEC77AF1EE10FA40F2F48172
:10363000F4EEC67AF1EE10FA80F2F48167EEA57A24
:10364000FDEEE77A17EE902A12B243F821200231FC
:103650000BF1080B8C420DD9DBED007A66EEA77AF0
:10366000F4EEC77AF1EE10FAC9D80246D4E7224642
:103670005946D047CD462C37BD46BDE8F08FD8F827
:103680001C20002AF7D0D8F804A04FF008094FF00A
:10369000020BBAF1000F7FF469AF3B62D8F800303B
:1036A000FB61002BE7D06648C7F818D002F040FE57
:1036B000BBF1020F3B6A386100F03C826A46600849
:1036C0004946A2EBC40278619546C4F35D026846A0
:1036D000A0EBC405AD46EE46ADEB090D00EB82094B
:1036E000EA46ADEB010D09EB82010EEB820C6D4653
:1036F000CAF8081001EB82013D62CAF80C100CEB0D
:10370000820101EB8202CAE90009C5E900ECC5E9C2
:103710000212012B00F03883022B00F02E82002BC6
:1037200040F0F781002C00F03F84BBF1020FD8F885
:10373000242000F06E843969DAF80C5002EB810E17
:103740001A46DAF808100EF10403C7F808A0C7F803
:1037500004B08A46FB60331DDFED355AD7F80CB054
:1037600036F92210D8ED0C7A06EE101A33F9221031
:1037700006EE901A3EF92210B8EEC66A07EE101A4D
:10378000F8EEE66A3BF92210B8EEC77A26EE256A13
:1037900066EEA56A27EE257A26EE276A66EEA76A08
:1037A00027EE277A07EE901A51080232F8EEE77AF0
:1037B00000EB810C94428CED006A09EB810C67EE02
:1037C000A57ACCED006A0AEB810C05EB81018CED4A
:1037D000007A98ED0C7A67EE877AC1ED007ABFD84F
:1037E000D7E901BA7A695046D7E9073198473A6A6A
:1037F000BBF1020F98ED0D7AD8F82C30D2E900CE4B
:1038000000F09E843A690021786A03EB82093B6AE2
:10381000DFED0E6A9FED086A09F10408DFED075A33
:10382000044ED3E902AB031D75E000BFD80B0024A2
:10383000000000380280FFFF04FF7F3F00FEFF46CC
:10384000DC0B0024C00B00240000003404FF7FBF09
:10385000F4EEC67AF1EE10FA80F28C8167EEA57A6A
:10386000FDEEE77A17EE905A2DB240F821500EEB9C
:103870000205D5ED007A67EE277AF4EEE67AF1EEEE
:1038800010FA40F25381F4EEC67AF1EE10FA80F2AB
:103890006E8167EEA57AFDEEE77A17EE905A2DB2AB
:1038A00043F821500AEB0205D5ED007A67EE277A3E
:1038B000F4EEE67AF1EE10FA40F23681F4EEC67AD2
:1038C000F1EE10FA80F26A8367EEA57AFDEEE77AF0
:1038D00017EE905A2DB25A4449F82150D2ED007A91
:1038E00067EE277AF4EEE67AF1EE10FA40F22081E4
:1038F000F4EEC67AF1EE10FA80F2538367EEA57A01
:10390000FDEEE77A17EE902A12B248F82120023134
:103910008C4240F203814A080CEB82059200D5EDFF
:10392000007A67EE277AF4EEE67AF1EE10FA8FD895
:1039300035469AE7002C3FF49AAED8ED0C6A8446DF
:103940001FED3F7A0021331D56F821200CF1080CA1
:1039500082F40002A2F5000207EE902A53F821201B
:103960000231F8EEE77A82F400028C42A2F50002FE
:1039700067EE877A67EEA67A4CED027A07EE902A18
:10398000F8EEE77A67EE877A67EEA67A4CED017A71
:10399000DAD859462246D0477D6A0021D8ED0D6A13
:1039A0001FED567A2B1DB6489FEDBC6AB54E28E038
:1039B000F4EEC67AF1EE10FA32DAF0EE675AFEEE65
:1039C000E45A15EE902ADBED017A45F8212066EEE7
:1039D000A77AF4EEC77AF1EE10FA1FD9F4EEC67AA0
:1039E000F1EE10FA24DAF0EE675AFEEEE45A15EE24
:1039F000902A43F8212002310BF1080B8C427FF60C
:103A000039AEDBED007A66EEA77AF4EEC77AF1EE16
:103A100010FACDD80246D6E7024616E60246E8E797
:103A20003246D0E747F6FE720FE647F6FE72F3E540
:103A30003246DEE7002C3FF41AAED8ED0C6A0146A0
:103A40009FED917A0022331D56F82250083107EE7F
:103A5000905A53F822500232F8EEE77A944267EE19
:103A6000877A67EEA67A41ED027A07EE905AF8EE71
:103A7000E77A67EE877A67EEA67A41ED017AE3D8B6
:103A800059462246D0477D6A0021D8ED0D6A9FED48
:103A9000827A2B1D7D489FED816A7D4E28E0F4EEF1
:103AA000C67AF1EE10FA32DAF0EE675AFEEEE05A1C
:103AB00015EE902ADBED017A45F8212066EEA77A13
:103AC000F4EEC77AF1EE10FA1DD9F4EEC67AF1EEF3
:103AD00010FA1ADAF0EE675AFEEEE05A15EE902A66
:103AE00043F8212002310BF1080B8C427FF6C2AD66
:103AF000DBED007A66EEA77AF4EEC77AF1EE10FA03
:103B0000CDD80246D6E70246EAE73246E8E7324633
:103B1000D0E77A695046396AFB699847D7F818D0D8
:103B20002C37BD46BDE8F08F3546D4E63546B7E6BE
:103B30003246EAE6A2004946650807327D6122F076
:103B40000702ADEB020D6846ADEB020D6A46ADEB28
:103B5000090D00EB8509EA46ADEB010D69460A60E7
:103B600002EB850239624A60CAE90009D1E547F6ED
:103B7000FE7595E647F6FE7577E6002C00F0148298
:103B8000BBF1020FD8F8243000F06B823A69C7F815
:103B900008A003EB820EC7F804B0DFED3B5A002209
:103BA0000EF10405DAE90213FB608A46331DD7F8EB
:103BB0000CB056F82210D8ED0C7A07EE101A53F814
:103BC0002210B8EEC76A07EE101A5EF82210F8EE5F
:103BD000C76A07EE101A26EE256A55F82210B8EECD
:103BE000C77A66EEA56A26EE276A27EE257A66EE84
:103BF000A76A27EE277A07EE901A51080232F8EEEC
:103C0000E77A00EB810C94428CED006A09EB810CA1
:103C100067EEA57ACCED006A0AEB810C0BEB810113
:103C20008CED007A98ED0C7A67EE877AC1ED007A18
:103C3000BFD8D7E901BA7A695046D7E90731984722
:103C40003A6ABBF1020FD8ED0D7AD8F82C30D2E9E0
:103C500000CE00F0D3823A6900217D6A03EB82092D
:103C60003B6ADFED0D6A9FED0D6A09F10408074E0E
:103C7000DFF81CB0D3E902A33B622B1D6BE000BF51
:103C80007E0080FF82FF7F0000000030007E008009
:103C90000082FF7F0000003404FF7FBF04FF7F3FEE
:103CA000B4EEC67AF1EE10FA6ADAF0EE475AFEEE9A
:103CB000E05A15EE900A45F821000EEB020090ED57
:103CC000007A27EE877AB4EEE67AF1EE10FA53D94D
:103CD000B4EEC67AF1EE10FA54DAF0EE475AFEEE80
:103CE000E05A15EE900A43F821000AEB020090ED2D
:103CF000007A27EE877AB4EEE67AF1EE10FA39D937
:103D0000B4EEC67AF1EE10FA80F24681F0EE475A30
:103D1000FEEEE05A15EE900A49F82100386A024496
:103D200092ED007A27EE877AB4EEE67AF1EE10FA99
:103D300024D9B4EEC67AF1EE10FA80F22B81F0EEBF
:103D4000475AFEEEE05A15EE902A48F8212002313B
:103D50008C427FF6E3AE4A080CEB8200920090EDB5
:103D6000007A27EE877AB4EEE67AF1EE10FA97D869
:103D70003046A0E73046CFE73046B4E73246E4E7C6
:103D8000584698E75846AEE7002C00F00D81BBF18D
:103D9000020FD8F8243000F00D813A690021C7F8ED
:103DA0000CA003EB820C5FED455AC7F808B00CF18C
:103DB000040EDAE902231D469246331D56F82120EF
:103DC000D8ED0C7A82F40002A2F5000207EE102A68
:103DD00053F8212082F40002B8EEC76AA2F500026F
:103DE00026EE256A07EE102A5CF8212082F40002F4
:103DF000F8EEC76A26EE276AA2F5000266EEA56A0B
:103E000007EE102A5EF82120B8EEC77A82F400028D
:103E100066EEA76AA2F5000227EE257A27EE277A3A
:103E200007EE902A4A080231F8EEE77A00EB820B9F
:103E30008C428BED006A09EB820B67EEA57ACBED25
:103E4000006A0AEB820B05EB82028BED007A98ED9B
:103E50000C7A67EE877AC2ED007AAFD8D7E902BA5A
:103E60007A695046D7E9073198473A6ABBF1020FA1
:103E7000D8ED0D7AD8F82C30D2E900CE00F01881B8
:103E80003A6900217D6A03EB82093B6A5FED7E6A35
:103E90001FED7E6A09F10408CF4EDFF84CB3D3E979
:103EA00002A33B622B1D58E0B4EEC67AF1EE10FA85
:103EB0006ADAF0EE475AFEEEE45A15EE900A45F83B
:103EC00021000EEB020090ED007A27EE877AB4EE27
:103ED000E67AF1EE10FA51D9B4EEC67AF1EE10FAA4
:103EE00050DAF0EE475AFEEEE45A15EE900A43F827
:103EF00021000AEB020090ED007A27EE877AB4EEFB
:103F0000E67AF1EE10FA37D9B4EEC67AF1EE10FA8D
:103F10003CDAF0EE475AFEEEE45A15EE900A49F804
:103F20002100386A024492ED007A27EE877AB4EED7
:103F3000E67AF1EE10FA23D9B4EEC67AF1EE10FA71
:103F400026DAF0EE475AFEEEE45A15EE902A48F8CB
:103F5000212002318C427FF6E1AD4A080CEB820051
:103F6000920090ED007A27EE877AB4EEE67AF1EED1
:103F700010FA99D83046A2E73046D0E73046B6E787
:103F80003246E4E75846B2E7584698E75846C6E74F
:103F90005A46DCE75A46D8E65846BDE647F6FE756F
:103FA00099E447F6FE72B0E42246396A5046FB694E
:103FB0009847B3E598ED0C6A0021DFED886A331D60
:103FC00056F8212082F40002A2F5000207EE902AA2
:103FD00053F8212082F40002B8EEE77AA2F500023D
:103FE00027EE267A07EE902A4A080231F8EEE77AA1
:103FF00000EB820527EE067A09EB82028C4267EE1F
:10400000A67A85ED007A67EE867AC2ED007AD7D877
:1040100026E71A4698ED0C6ADFED716A331D36F912
:10402000221007EE101A33F9221007EE901AB8EE9C
:10403000C77A51080232F8EEE77A27EE267A00EBCB
:104040008105944209EB810167EEA67A27EE067A94
:1040500067EE867A85ED007AC1ED007ADFD8FFF74A
:10406000C1BB98ED0C6A0022DFED5E6A331D56F885
:10407000221007EE901A53F82210B8EEE77A07EEF6
:10408000901A51080232F8EEE77A27EE267A00EB12
:104090008105944209EB810167EEA67A27EE067A44
:1040A00067EE867A85ED007AC1ED007ADFD8C2E549
:1040B0007A6A0021DFED4F6A9FED4F6A131D464873
:1040C0009046494E27E0B4EEC67AF1EE10FA35DAA2
:1040D000F0EE475AFEEEE45A15EE905A724448F854
:1040E000215092ED007A27EE877AB4EEE67AF1EE6F
:1040F00010FA1FD9B4EEC67AF1EE10FA1CDAF0EE1F
:10410000475AFEEEE45A15EE902A43F82120023178
:104110008C427FF603AD4A080CEB8205920095EDC8
:10412000007A27EE877AB4EEE67AF1EE10FACAD872
:104130000546D3E70246E8E73246E6E73546CDE7EF
:104140007D6A0020DFED2B6A9FED2B6A2B1DDFEDD2
:10415000275A274E29E0F4EEC67AF1EE10FA35DA46
:1041600067EEA57AFDEEE77A17EE901A09B272446F
:1041700045F82010D2ED007A67EE277AF4EEE67A61
:10418000F1EE10FA20D9F4EEC67AF1EE10FA20DA48
:1041900067EEA57AFDEEE77A17EE902A12B243F8A1
:1041A0002020023084427FF6B9AC42080CEB820139
:1041B0009200D1ED007A67EE277AF4EEE67AF1EE1E
:1041C00010FAC8D83146D2E73246E8E747F6FE7122
:1041D000CDE747F6FE72E2E77E0080FF0000003484
:1041E000000000380000003082FF7F0000FEFF4624
:1041F0000280FFFF04FF7FBF04FF7F3F7A6A002138
:104200005FED046A1FED046A131D20489046204E9E
:1042100027E0B4EEC67AF1EE10FA35DAF0EE475A3E
:10422000FEEEE05A15EE905A724448F8215092ED95
:10423000007A27EE877AB4EEE67AF1EE10FA1FD90B
:10424000B4EEC67AF1EE10FA1CDAF0EE475AFEEE42
:10425000E05A15EE902A43F8212002318C427FF675
:104260005DAC4A080CEB8205920095ED007A27EED2
:10427000877AB4EEE67AF1EE10FACAD80546D3E7AB
:104280000246E8E73246E6E73546CDE7007E0080A5
:104290000082FF7F30B5184C154685B0046004F1EC
:1042A000080EEC460FC98EE80F00D4ED047AF5EE47
:1042B000C07A8CE80F00F1EE10FA1ADDB7EE006A52
:1042C00094ED057A27EE277AC6EE276A84ED0D7AFB
:1042D000C4ED0C6A6DB1204640F8185F01F0BEFFD6
:1042E000064903690020064A2162A262E36005B024
:1042F00030BD012005B030BDC00B002400200030CF
:104300000000003000680830704700BFB1F5807FC2
:1043100003680A4628BF4FF48072B1F5807F9A6027
:1043200094BF0020012070470068183001F0EEBFF4
:1043300070B504688AB0A369E160CBB104F11805D7
:10434000284601F08BFF8446EE46E668BCE80F0085
:10435000AEE80F00BCE80F00AEE80F009CE80300D9
:104360008EE8030069462846049601F075FEF0B910
:10437000E369CBB104F11C05284601F06FFF8446C8
:10438000EE46E468BCE80F00AEE80F00BCE80F00A2
:10439000AEE80F009CE803008EE80300694628465B
:1043A000049401F059FE10B900200AB070BD01203C
:1043B0000AB070BD30B5046883B00D46E3694BB1F7
:1043C000A3680020E26A616A9B00009004F11C006F
:1043D00001F046FFA3680748A26A9B00216A00908B
:1043E00004F1180001F03CFF0020C4E9005003B0C4
:1043F00030BD00BF25350008064B302003214FF0AB
:104400007E52C3E90201002000211A615A61C3E90A
:1044100006017047C00B0024704700BF0FB4F0B511
:1044200083B02C4C2C4E08AB206853F8042BC0F101
:104430008001304401930FF0A3FE2368C01827D0F9
:10444000321800E020B312F8013D014601380D2B6F
:1044500018BF0A2BF6D08D1C7F2D33D942F224428F
:104460008023A6F87E201D461C4E23603368012B56
:1044700019D82A4618491A4800F04AF9E8B93368A9
:1044800020600133336003B0BDE8F04004B07047F2
:104490000A230D227370022332701D460F4E2360D3
:1044A0003368012BE5D90C4F0D4E2A46394630466C
:1044B00000F02EF90028F8D1206003B0BDE8F040EC
:1044C00004B070470D230A2273540E442B467270B9
:1044D000E4E700BF040C0024080C0024000C0024B6
:1044E000FC0B002410B504460021084800F08AF8AF
:1044F000074B640007481C60FFF790FF0648FFF772
:104500008DFF0A20BDE8104001F0C8BFFC0B00245D
:10451000000C0024D8560108E856010838B5074DAC
:10452000074C2A46074821460FF0E8F92A4621465B
:104530000548BDE838400FF0E1B900BF0000002495
:1045400019440008FC0B0024F80B0024F0B51D46AC
:1045500083B0044617469DF82060A5F10105ADF82B
:10456000041001F099FFB5FA85F5012E4FEA5515B3
:1045700013D0023E18BF01260023BDF8042020609E
:10458000A01D67712371A372E572E28023726672C7
:1045900003B0BDE8F04000F005BD0226ECE700BF27
:1045A00038B5044601F078FF002223682271834267
:1045B00011D00122A57AE37A954020602271A01DD6
:1045C0006DB24BB900F0CCFD40B245EA0003DBB25E
:1045D0007F2BA3720BD038BD00F0C2FDB0FA80F083
:1045E000400945EA0003DBB27F2BA372F3D101F04F
:1045F00053FF07EE900AF8EE677AC4ED037A38BDF0
:10460000704700BF012910B526D002290AD0F9B998
:10461000364B0A46364C374937481C600AF052FE82
:1046200038B1FEE70122354935480AF04BFE00B3A8
:10463000FEE7344930480AF067FE00BB32492E4895
:104640000AF0F4FDE0B92C480AF074FE002839D1D4
:10465000BDE8104006F05ABC0A46294827490AF02E
:1046600031FE00B1FEE7274925480AF04DFE70B142
:10467000FEE7244922480AF047FE10B1FEE7FEE7B4
:10468000FEE722491E480AF0D1FD60B1FEE71F494E
:104690001B480AF0CBFD00B1FEE719480AF04AFEBC
:1046A0000028D5D0FEE716480AF044FE024640B97D
:1046B0000E4B0F4C0F4910481C600AF003FE10B15E
:1046C000FEE7FEE7FEE70F490B480AF01DFE00B1CA
:1046D000FEE70D4908480AF0A9FD00B1FEE70648CB
:1046E0000AF028FE0028B3D0FEE700BF880C0024A3
:1046F00001460008F8000024900C0024C8000024A3
:104700002C0F00246802002484000024740000247C
:10471000084691B208B502F063F9003818BF0120CD
:1047200008BD00BF014805F061BE00BFC0400024C5
:10473000014805F05BBE00BFC0400024014805F001
:1047400055BE00BFC040002400B583B04FF0000E3E
:104750004FF0030C4274ADF80410BDF8043080F83B
:1047600010E0A0F802C0038003B05DF804FB00BFB6
:104770002DE9F04F4FF00008DFF80093B94C8FB0EF
:1047800003700646B84B174642600D46202241464C
:104790004846C4F86831C4F86491CDE90388CDE98E
:1047A0000588CDE90788CDE90988CDE90B880FF0A8
:1047B00029FD2022414604F5A170C4F83181C4F8D6
:1047C0003581C4F83981C4F83D810FF01BFD84F8B0
:1047D0003071736884F84882002B00F0878143466B
:1047E000484604F5987105F1100AC6460197EF187E
:1047F00055F803B0E2180EF1010ED7F80CC0D7F847
:104800000490D7F8088044F803B0C2F80CC04FF009
:10481000000CC2F80490C2F808803F8A20F802CB4E
:1048200017821AF8032001F8012F62B172684FF065
:1048300001071233964584F84872D8D3019F0022AD
:104840000123FFB20CE0776812337745CFD894F894
:104850004832019F002BFFB206BF01220323012330
:1048600084F8812100203278C4F8983100237F49F0
:10487000C4F8743184F8803184F88831C4F88471C4
:10488000C4E967334FF48023C4E95B130821012393
:10489000C4E95E310021C4E964019AB1002001211C
:1048A000013A84F8A431C4E96C01082A0CD8DFE885
:1048B00012F0FA00F500F000EB00D400CF00C900C0
:1048C000C200BB0084F8A421694803F097F90346AD
:1048D00008B1FFBEFEE703A96548039303F0EAFAB7
:1048E000002840F09F80042340F2FF720B90CDE936
:1048F000092394F83031002B48D0DFF884A1074613
:10490000DFF88081AAF58E750AF14C096B7B072BC5
:1049100007D8DFE803F081847E7B78753E040723A7
:104920000893281F00F03EFB2B7B042B39DC022B65
:1049300000F3D28000F0CC8000238AF8003015F814
:10494000043C002B40D0022B00F0B280012B40F041
:10495000DD8015F8033C012B00F0C680002B454B91
:1049600018BF0023069306A958F8043B484607934E
:1049700002F0B0FD002840F0C180013794F83021EA
:104980000AF1010A1235FBB29A42BFD80FB0BDE856
:10499000F08F0623281F089300F004FB2B7B042BC9
:1049A000C5DD03238AF80030AB46002658460136A1
:1049B00000F0F8FA9AF800300BF1040BB342F5DC82
:1049C00015F8043C002BBED115F8033C062B00F073
:1049D0008780072B00F09880022B00F09980032B32
:1049E00000F09880002B00F09980012B00F094805B
:1049F000042B00F09580052B1F4B18BF0023B1E757
:104A0000052308938DE7042308938AE7032308937B
:104A100087E70223089384E70023089381E70123B3
:104A200008937EE7FFBEFEE740F2FF324FF4A0732B
:104A3000C4E96A2348E740F2FF124FF49073C4E9D7
:104A40006A2341E7FF224FF48073C4E96A233BE7FE
:104A50007F22E023C4E96A2336E73F22C023C4E96A
:104A60006A2331E7C8110024404000300020024092
:104A7000341300240002B0250000B84F004000307D
:104A8000E8120024C05701081F22A023C4E96A23AA
:104A90001AE70F228023C4E96A2315E7072260235F
:104AA000C4E96A2310E703224023C4E96A230BE721
:104AB00015F8033C042B15D0052B1BD0E3B1012BBB
:104AC0001ED0022B1ED0032B164B18BF002349E724
:104AD00001238AF8003067E702238AF8003063E791
:104AE000114B3FE7114B3DE7114B3BE7FFB2012272
:104AF0000323B5E60F4B35E70F4B33E7FFBEFEE769
:104B00000E4B2FE70E4B2DE70E4B2BE7002329E72B
:104B10000D4B27E70D4B25E70D4B23E70D4B21E709
:104B20000D4B1FE7002090360800900C1000C010BD
:104B30002000F014000180210004002A0008302E1B
:104B4000001060328000501D0040C03A0080F03EEE
:104B500000005247000021430000844B10B5084C70
:104B600040F2FF724FF00111204603F051F914F8A2
:104B70003C2C54F8081C2046BDE8104002F0CABE88
:104B800034130024044B0F29D3F8643198BF03EB8E
:104B900041031888704700BFC8110024204B0268E9
:104BA0009A4200D070471F4B00221F48D3F8D810FC
:104BB00030B51E4C41F0200183B0C4F8D00109206B
:104BC00004F5E875C4E97502C3F8D8104FF48060A5
:104BD000D3F8D81094F8483201F0200183F0010393
:104BE00001911B02C4E977204FF40060C4F8EC3156
:104BF000019B4FF40053C4F8E4012846C4F8E8319F
:104C0000C4E97C2203F074FB08B1FFBEFEE704F5A3
:104C1000B673C4F8B851C4F8083203B030BD00BF51
:104C2000002002400044025840000240C811002405
:104C3000014803F0EFBE00BF98130024414B026807
:104C40009A4200D070472DE9F0473F4D95F8483221
:104C50000BB9BDE8F08795F83021002A48D005F15E
:104C60000C0805F5A17605F59877002414E003F00B
:104C700001013380A8F1080017F811AC00F07EFAAA
:104C8000BAF1010F23D895F83021013408F1120848
:104C90000236A3B29A4229D917F8013F002BF4D06B
:104CA000D5F864310021327833F81400D5F8683132
:104CB00003EB041323F8120033883A7801339BB2D4
:104CC0009A425FFA83F9D2D80B468946D1E7C9F3F5
:104CD0004001A8F1040000F051FABAF1020FC9F343
:104CE0008001D0D0404600F049FACCE795F8483230
:104CF00083F001031548092100221B024FF4806450
:104D0000C5F8D821C5F8EC314FF40053C5F8DC21C3
:104D1000C5F8E831C5E974014FF400610C48C5E9F4
:104D20007841C5E97C2203F0E3FA08B1FFBEFEE753
:104D300095F83021D5F864110648BDE8F04702F037
:104D4000E9BD00BF00200240C8110024400002401D
:104D50009813002434130024704700BF10B592B09C
:104D60000180ADF80410C9B2149C0B29C460C0E9DD
:104D700001232FD090F801E08446BEF10F0F29D80F
:104D8000022A39D0032A04D0A2F10102B2FA82F237
:104D90005209012B0E9205D0A3F10203B3FA83F35B
:104DA0005B095B00022C0F9306D0032C04D0A4F106
:104DB0000104B4FA84F464090A2910940CD900237C
:104DC0001846CCF8103001230DA903FA0EF30D9309
:104DD00004F034F812B010BD5B4B4A1E03EB812384
:104DE000CCF81030092A00F29F80DFE802F08E7FB5
:104DF00070615243342516071122CAE7534B5448B9
:104E0000D3F8E02042F48062C3F8E020D3F8E03029
:104E100003F480630C930C9BD5E74C4B4D48D3F8BF
:104E2000E02042F40072C3F8E020D3F8E03003F44D
:104E300000730B930B9BC6E7444B4748D3F8E02025
:104E400042F48072C3F8E020D3F8E03003F48073BA
:104E50000A930A9BB7E73D4B4048D3F8E02042F065
:104E60008002C3F8E020D3F8E03003F08003099318
:104E7000099BA8E7354B3A48D3F8E02042F04002BE
:104E8000C3F8E020D3F8E03003F040030893089B18
:104E900099E72E4B3348D3F8E02042F02002C3F8C4
:104EA000E020D3F8E03003F020030793079B8AE764
:104EB000264B2D48D3F8E02042F01002C3F8E02042
:104EC000D3F8E03003F010030693069B7BE71F4BFB
:104ED0002648D3F8E02042F00802C3F8E020D3F8D7
:104EE000E03003F008030593059B6CE7174B20485F
:104EF000D3F8E02042F00402C3F8E020D3F8E03019
:104F000003F004030493049B5DE7104B1948D3F8A6
:104F1000E02042F00202C3F8E020D3F8E03003F0D2
:104F200002030393039B4EE7084B0748D3F8E020A6
:104F300042F00102C3F8E020D3F8E03003F00103AF
:104F40000293029B3FE700BF000002580044025852
:104F5000002802580024025800200258001C025861
:104F6000001802580014025800100258000C025891
:104F7000000802580004025808B50121437800696E
:104F8000994089B204F094FA003818BF012008BD96
:104F900001230A464178006903FA01F189B204F05D
:104FA0008DBA00BF8378022B30B504468FB039D05C
:104FB000032B00F0D180A3F10102B2FA82F2520970
:104FC000E3780A92012B05D0A3F10203B3FA83F32D
:104FD0005B095B0000222046CDE90B3202F0F4F8B9
:104FE0000546204602F0F8F823780990082B13D8DC
:104FF000DFE803F02D405366798C9F051A00574B6C
:10500000D3F8E02042F08002C3F8E020D3F8E0308B
:1050100003F080030793079B09A9284603F00EFFBE
:105020000FB030BD1122CBE74C4B09A92846D3F86D
:10503000E02042F48072C3F8E020D3F8E03003F4BB
:1050400080730893089B03F0F9FE0FB030BD434B0B
:1050500009A92846D3F8E02042F00102C3F8E02075
:10506000D3F8E03003F001030093009B03F0E6FE69
:105070000FB030BD394B09A92846D3F8E02042F0E3
:105080000202C3F8E020D3F8E03003F002030193FA
:10509000019B03F0D3FE0FB030BD304B09A9284669
:1050A000D3F8E02042F00402C3F8E020D3F8E03067
:1050B00003F004030293029B03F0C0FE0FB030BD67
:1050C000264B09A92846D3F8E02042F00802C3F88D
:1050D000E020D3F8E03003F008030393039B03F0D0
:1050E000ADFE0FB030BD1D4B09A92846D3F8E02016
:1050F00042F01002C3F8E020D3F8E03003F01003D0
:105100000493049B03F09AFE0FB030BD134B09A922
:105110002846D3F8E02042F02002C3F8E020D3F87C
:10512000E03003F020030593059B03F087FE0FB0EA
:1051300030BD0A4B09A92846D3F8E02042F04002CE
:10514000C3F8E020D3F8E03003F040030693069B59
:1051500003F074FE0FB030BD1A4631E70044025828
:1051600038B5054602F030F80446284602F034F817
:1051700001462046BDE8384004F09AB970B50646AD
:105180000D4602F021F80446304602F025F82A1EAA
:105190000146204618BF0122BDE8704004F08EB9D8
:1051A00070B5002386B0122204460393CDE9012393
:1051B0000368032B01D804230493261D06343046CC
:1051C00002F002F80546304602F006F8034669464A
:1051D0002846009303F032FE204601F0F5FF034617
:1051E00020461C4601F0F8FF69460346204600931E
:1051F00003F024FE06B070BD634A0368934210B505
:105200008CB028D0614A934258D0614A934200F052
:105210009480604A934201D00CB010BD5E4C5F4850
:10522000D4F8E03043F00203C4F8E030D4F8E030C2
:1052300003F002030A930A9BFFF7B2FFD4F8F4309D
:1052400043F08003C4F8F430D4F8F43003F0800362
:105250000B930B9BE0E7504C5148D4F8E03043F0FF
:105260000203C4F8E030D4F8E03003F00203019305
:10527000019BFFF795FFD4F8E83000221F2043F48C
:1052800000131146C4F8E830D4F8E83003F40013F2
:105290000293029BD4F8D83043F00103C4F8D8300D
:1052A000D4F8D83003F001030393039B02F06EFEA1
:1052B0001F200CB0BDE8104002F0A4BE364C3948A7
:1052C000D4F8E03043F08003C4F8E030D4F8E030A4
:1052D00003F080030493049BD4F8E03043F002030E
:1052E000C4F8E030D4F8E03003F002030593059BE6
:1052F000FFF756FFD4F8E8300022212043F4800362
:105300001146C4F8E830D4F8E83003F4800306937B
:10531000069BD4F8D83043F00103C4F8D830D4F851
:10532000D83003F001030793079B02F02FFE2120E2
:105330000CB0BDE8104002F065BE1B48FFF730FF1F
:10534000154B00224820D3F8E840114644F40004ED
:10535000C3F8E840D3F8E84004F400040894089C3B
:10536000D3F8D84044F00104C3F8D840D3F8D8307B
:1053700003F001030993099B02F008FE48200CB0DA
:10538000BDE8104002F03EBE00540040005800400E
:10539000005C0040001C005800440258A016002485
:1053A00018140024F0140024C8150024F0B50022BD
:1053B00087B0184B1021CDF802206F46CDF806209B
:1053C0009C46CDF80A206E46CDF80E200CF118054B
:1053D000CDF812200CF1300EADF81620FF220E4B46
:1053E0006C46ADF800101A700FCFACE80F0097E8CC
:1053F00003008CE803000FCE0FC596E8030085E894
:1054000003000FCCAEE80F0094E803008EE8030021
:1054100007B0F0BD140000241414002410B5EFF3FD
:10542000108472B6074B1A78120602D504B962B618
:1054300010BD1B78D820044A5BB200FB032003F0A8
:10544000E9FAF3E7141400242C140024014804F0B2
:10545000B9BE00BFA4140024014804F0B3BE00BFCD
:105460007C150024014804F0ADBE00BF5416002492
:105470002DE9F0410F68D8253C4E84B007FB05F5B7
:10548000032F06EB0503036058DCCA680C46012AAB
:1054900054D84FD020689C4661684FF0D808A26865
:1054A0000DF1100EE36808FB0768ACE80F00304B05
:1054B000227C8CF80020D8F808C00FCB0EE90F0032
:1054C0000EEB8703BCF1010F53F8103CC8F88C3089
:1054D00042D0BCF1020F35D0BCF1000F08D101F071
:1054E00041F9244B98420CBF234B244BC8F8903011
:1054F0008C35D823217C002203FB0763012035442F
:105500004900C3E926022846C3F89410C3E92822BB
:10551000C3E92A2204F04EFC80B90146284604F073
:105520005DFE58B90146284604F082FE003818BFD7
:10553000012004E00A7C103A672AABD9012004B0AC
:10554000BDE8F08101F00EF90A4B98420CBF0C4BFC
:105550000C4BC8F89030CBE701F004F9054B9842AA
:105560000CBF094B094BC8F89030C1E71814002450
:10557000FC540108000E27075F4390608A62E03008
:10558000200BA0101A0980102D0FB0303211D0203E
:105590002DE9F041D0F8008082B00D4617461E4636
:1055A00008F18C04204604F015FE2028FAD1D8F822
:1055B0000C3073B96D002046089C33463A46A9B2B8
:1055C000009404F04DFC003818BF012002B0BDE883
:1055D000F081089B32463946204604F00DFDF2E783
:1055E000044B10221A7483F8E82083F8C02183F852
:1055F000982270471814002430B5002395B04FF45A
:105600008071062204460B9306921393CDE90C1386
:10561000CDE90E33CDE9113301F0A6F807282AD0E1
:1056200004F1100541F2883206A9284605F0C6FDAE
:1056300028B1012384F85C30012015B030BD02236D
:10564000102206A9284602920022CDE90033012348
:1056500003934FF48003CDE9042305224FF08073B8
:1056600006926A460F9341F2883305F037FF00280F
:10567000DFD115B030BD032384F85C30DCE700BF18
:1056800070B50023A4B04FF080724FF480750446CB
:10569000ADF806301B93CDE91E320122CDE91C5333
:1056A000CDE92023CDE92233002942D0F02300F1B7
:1056B000100516AEADF80630C02341F288323146EF
:1056C0002846169305F07AFD28B1012384F85C3052
:1056D000012024B070BD41F288320DF10601284648
:1056E00005F0DAFD03460028EFD14FF48071052262
:1056F000284601250892102210930D9315930293CA
:105700000595CDE90E139FED1E7B4FF08071CDE91D
:105710001333119141F2883308A9CDE9035202AA4B
:105720008DED067B05F0DAFE0028D2D084F85C50BF
:10573000CEE700F1100516AE612341F28832314602
:105740002846169305F03AFD0028BED141F2883272
:105750000DF10601284605F02DFE0028B5D1BDF853
:105760000630204623F0780343F04003ADF80630BE
:10577000FFF742FF00289FD0A7E700BFAFF30080EC
:1057800000000000000040002DE9F04F00234FF41E
:10579000807601254FF0807804462DED028BABB06A
:1057A0008DF80730219313931B9322961C95CDF807
:1057B0009480CDE92333CDE92653CDE92833CDE9D3
:1057C0001463CDE91633CDE9193306230E9300F0A7
:1057D000CBFF072808D004F1100741F288320EA948
:1057E000384605F0EBFC40B1012384F85C30012021
:1057F0002BB0BDEC028BBDE8F08F02234FF01009F7
:105800004FF0050A08AA0EA938460B95CDF85C8022
:10581000CDF82890CDF838A09FED298BCDE908333D
:1058200041F288338DED0C8B05F058FE0028DBD15A
:1058300041F2883238461CA905F0C0FC0028D3D1BB
:105840004FF0400B41F288320DF1070138468DF8D8
:1058500007B005F021FD0028C6D141F288331CA90C
:1058600002AA3846CDF870A0CDF89480CDE902BBED
:10587000CDE904958DED068B05F030FE034600283A
:10588000B2D1139308AA1B930EA938461496CDF8EB
:1058900038A0CDF85C80CDF828900B95CDE9153374
:1058A000CDE91933CDE9083541F288338DED0C8B04
:1058B00005F014FE00289BD084F85C5097E700BFE9
:1058C00000000000000040002DE9F0435C4CA3B054
:1058D0000E46046000F048FF072800F0A4803068FE
:1058E00025467168B26807C5B389284620F8043B8D
:1058F000267B677B05F044FCE0B9524B012E4FF04C
:105900000108E06123610CBF4FF400034FF48013E2
:10591000C4E9058893FAA3F3B3FA83F34FF48079CB
:10592000013BC4F82490C4E90B00281D236205F054
:10593000B9FB38B1012384F85C300126304623B02E
:10594000BDE8F08366230B90139041F2883206A9DC
:105950000693CDE90C90CDE90E00CDE91100281D8C
:1059600005F02CFC0028E5D1992341F2883206A9E4
:10597000281D069305F022FC0028DBD105231C908E
:1059800019906A4614934FF08073219014A91D93C7
:105990001023CDF80C80029341F288339FED247BD5
:1059A000CDE91A90CDE91F00CDE90008281D8DED45
:1059B000047B05F093FD0028BCD131462046FFF75B
:1059C0005FFE0028B6D12046FFF7DEFE064600281F
:1059D000B0D1002FB2D1EB2306AA14A9281D14932D
:1059E0004FF44063CDF868901B934FF40053189622
:1059F00017934FF440431C93A02316930623199347
:105A00004FF080539FED0C7B21934FF04073CDE915
:105A10001F661D938DED067B05F0EEFD00288DD0F1
:105A200084F85C8089E7032384F85C3085E700BF55
:105A30000000000000004000000000000000000026
:105A400078170024005000522DE9F04F8FB0414BE1
:105A50000024026800AF9A427C63C7E90944C7E9A1
:105A60000B4403D03C37BD46BDE8F08F3A4B40F6BF
:105A700009213A48EA46D3F8D42007F11C0607F179
:105A8000220B4FF0020942F480424FF00308C3F8A2
:105A9000D420D3F8D42002F48042BA60BA68D3F894
:105AA000E02042F04002C3F8E020D3F8E02002F00A
:105AB0004002FA60FA68D3F8E02042F02002C3F80E
:105AC000E020D3F8E02002F020023A613A69D3F8EE
:105AD000E02042F01002C3F8E020D3F8E02002F00A
